:020000040800F2
:1000000000000824E11400085510000857100008EB
:10001000591000085B1000085D1000080000000087
:100020000000000000000000000000005F10000859
:10003000611000080000000063100008651000084F
:100040003515000835150008351500083515000868
:100050003515000835150008351500083515000858
:100060003515000835150008351500086910000819
:1000700079100008351500083515000835150008F9
:100080003515000835150008351500083515000828
:100090003515000835150008351500083515000818
:1000A0003515000835150008351500083515000808
:1000B00035150008351500083515000835150008F8
:1000C00035150008351500083515000835150008E8
:1000D0003515000889100008351500083515000889
:1000E000351500083515000800000000351500081A
:1000F00035150008351500083515000835150008B8
:10010000351500089D100008351500083515000844
:10011000351500083515000835150008AD10000824
:100120003515000835150008351500083515000887
:100130003515000835150008351500083515000877
:1001400000000000000000000000000000000000AF
:100150003515000835150008351500083515000857
:100160003515000835150008351500083515000847
:100170003515000835150008351500080000000089
:100180003515000835150008351500083515000827
:100190003515000835150008351500083515000817
:1001A000BD10000835150008351500083515000884
:1001B000CD10000835150008351500083515000864
:1001C00035150008351500083515000835150008E7
:1001D000351500089FCF00083515000835150008B3
:1001E00035150008351500083515000835150008C7
:1001F00035150008351500083515000835150008B7
:1002000035150008351500083515000835150008A6
:100210003515000835150008351500083515000896
:100220003515000835150008DD1000080000000035
:1002300035150008351500080000000035150008C8
:100240003515000835150008351500083515000866
:100250003515000835150008351500083515000856
:100260003515000835150008351500083515000846
:100270003515000835150008351500080000000088
:100280003515000835150008351500080000000078
:08029000000000003515000814
:1002C00053B94AB9002908BF00281CBF4FF0FF31BD
:1002D0004FF0FF3000F00CB8ADF1080C6DE904CE22
:1002E00011F034F8DDF804E0DDE9022304B07047D2
:1002F000704700BF00000000000000000000000088
:1003000001F0FF01102A2BDB10F0070F08D010F8C6
:10031000013B013A8B422DD010F0070F42B3F6D1CA
:10032000F0B441EA012141EA014122F007047FF0E3
:1003300000070023F0E80256083C85EA010586EA3A
:10034000010685FA47F5A3FA87F586FA47F6A5FA76
:1003500087F68EB9EED1F0BC01F0FF0102F0070282
:1003600032B110F8013B013A83EA010313B1F8D12D
:100370000020704701387047002D06BF354603380E
:10038000073815F0010F07D1013015F4807F02BF47
:10039000013015F4C03F0130F0BC0138704700BF98
:1003A000844641EA000313F003036DD1403A41D380
:1003B00051F8043B40F8043B51F8043B40F8043B3F
:1003C00051F8043B40F8043B51F8043B40F8043B2F
:1003D00051F8043B40F8043B51F8043B40F8043B1F
:1003E00051F8043B40F8043B51F8043B40F8043B0F
:1003F00051F8043B40F8043B51F8043B40F8043BFF
:1004000051F8043B40F8043B51F8043B40F8043BEE
:1004100051F8043B40F8043B51F8043B40F8043BDE
:1004200051F8043B40F8043B51F8043B40F8043BCE
:10043000403ABDD2303211D351F8043B40F8043B6E
:1004400051F8043B40F8043B51F8043B40F8043BAE
:1004500051F8043B40F8043B103AEDD20C3205D37E
:1004600051F8043B40F8043B043AF9D2043208D076
:10047000D2071CBF11F8013B00F8013B01D30B88E8
:1004800003806046704700BF082A13D38B078DD0C6
:1004900010F003038AD0C3F10403D21ADB071CBF98
:1004A00011F8013B00F8013B80D331F8023B20F802
:1004B000023B7BE7043AD9D3013A11F8013B00F83B
:1004C000013BF9D20B7803704B7843708B788370C3
:1004D00060467047000000000000000000000000BF
:1004E000000000000000000000000000000000000C
:1004F00000000000000000000000000000000000FC
:1005000030B490F800F020F007016FF0000C10F00C
:10051000070491F820F040F048804FF000046FF09D
:100520000700D1E9002391F840F000F1080082FAB9
:100530004CF2A4FA8CF283FA4CF3A2FA8CF34BBB84
:10054000D1E9022382FA4CF200F10800A4FA8CF2FD
:1005500083FA4CF3A2FA8CF3E3B9D1E9042382FACB
:100560004CF200F10800A4FA8CF283FA4CF3A2FAE0
:100570008CF37BB9D1E9062301F1200182FA4CF218
:1005800000F10800A4FA8CF283FA4CF3A2FA8CF37F
:10059000002BC6D0002A04BF04301A4612BAB2FAA1
:1005A00082F200EBD20030BC7047D1E9002304F0A6
:1005B0000305C4F100004FEAC50514F0040F91F8DB
:1005C00040F00CFA05F562EA05021CBF63EA050378
:1005D00062464FF00004AAE70348044B834202D06E
:1005E000034B03B118477047C0080024C00800241B
:1005F000000000000548064B1B1AD90F01EBA301B0
:10060000491002D0034B03B118477047C0080024BB
:10061000C00800240000000010B5064C237843B940
:10062000FFF7DAFF044B13B10448AFF30080012356
:10063000237010BDC00800240000000058A5010868
:1006400008B5054B1BB105490548AFF30080BDE86F
:100650000840FFF7CFBF00BF00000000C40800241F
:1006600058A5010800B583B00F4BD3F8D82042F04D
:100670000102C3F8D820D3F8D83003F00103019366
:10068000019B002205210B2001F008F80B2001F04E
:1006900015F8002205210C2001F000F80C2001F0D3
:1006A0000DF803B000BD00BF004402582DE9F04131
:1006B000B8B00023339334933593369337933A4B42
:1006C0001B6813B138B0BDE8F0810126364B1E60BF
:1006D00002ACC0252A460021204612F085FF4FF0CB
:1006E00080720023CDE90223022304931022059295
:1006F00006930793089609951493204604F0A0FCEE
:1007000000284ED1294BD3F8D42042F48052C3F8AC
:10071000D420D3F8D43003F480530193019B4FF6D7
:100720003F0333934FF00208CDF8D0800027359770
:10073000032636960C25379533AC21461C4802F02B
:10074000B5FB2C233393CDF8D0803597369637956B
:100750002146184802F0AAFB48F237133393CDF82C
:10076000D0803597369637952146134802F09EFB88
:100770004FF683733393CDF8D080359736963795FF
:1007800021460E4802F092FB4CF203733393CDF8EE
:10079000D0803597369637952146094802F086FB7A
:1007A00090E700F029F9ADE7DC0800240044025886
:1007B00000140258001C0258001802580010025879
:1007C000000C025800B589B001A9002301934B60C9
:1007D0008B60CB600B614B618B611948194A0260D9
:1007E0004360012282600822C260102202614FF041
:1007F000400CC0F814C04FF4C07CC0F818C0C361EE
:100800004FF4006303624FF4805343624FF400538C
:100810008362022301934FF0070CCDF808C04FF01C
:10082000040ECDF80CE0CDF810C0059306930792A6
:1008300007F078FA08B909B000BD00F0DDF8FAE772
:10084000E00800244041005208B5FFF72FFF08BD23
:1008500070B58EB009AD002409940A940B940C94E1
:100860000D943F4BD3F8E02042F01002C3F8E02093
:10087000D3F8E02002F010020092009AD3F8E020B2
:1008800042F00402C3F8E020D3F8E02002F00402B2
:100890000192019AD3F8E02042F48072C3F8E0207C
:1008A000D3F8E02002F480720292029AD3F8E0209A
:1008B00042F02002C3F8E020D3F8E02002F020024A
:1008C0000392039AD3F8E02042F08002C3F8E020BC
:1008D000D3F8E02002F080020492049AD3F8E020DA
:1008E00042F00102C3F8E020D3F8E02002F0010258
:1008F0000592059AD3F8E02042F00202C3F8E02006
:10090000D3F8E02002F002020692069AD3F8E02023
:1009100042F04002C3F8E020D3F8E02002F04002A9
:100920000792079AD3F8E02042F00802C3F8E020CB
:10093000D3F8E03003F008030893089B094E2246E1
:10094000C021304602F0D2FBC023099301230A9351
:100950000B940C942946304602F0A8FA0EB070BDF4
:1009600000440258001C025870B584B00024009462
:1009700001940294039400F0A5FE01268DF8006016
:100980008DF801404FF04043019318238DF8083053
:100990008DF809408DF80A4003238DF80B308DF84F
:1009A0000C408DF80D408DF80E608DF80F406846B4
:1009B00000F0A6FE8DF801604FF040530193112323
:1009C0008DF808308DF80C608DF80D608DF80E40B4
:1009D000684600F095FE042000F082FE04B070BD71
:1009E00008B50268034B9A4200D008BD00F0D4FD60
:1009F000FBE700BF0014004072B6FEE700B59DB0F3
:100A00004C22002109A812F0EFFD2022002101A8AC
:100A100012F0EAFD022002F0A7FF00230093274B0B
:100A20009A6942F440429A619B6903F440430093FF
:100A3000234BDA6A42F00102DA62DB6A03F0010357
:100A40000093009B1D4B9B6913F4005FFAD0292390
:100A500009934FF480330A9301230E930F930223DB
:100A60001293139305221492C02215921693142305
:100A70001793042318930823199300231A931B93A5
:100A800009A803F0C7FBA8B93F23019303230293EE
:100A90000390082304934023059306934FF4806248
:100AA0000792089304210DEB010004F007F818B930
:100AB0001DB000BDFFF7A0FFFFF79EFF00480258E2
:100AC0000004005810B584B0FFF74EFF494B5B6936
:100AD00013F4003F13D1BFF34F8FBFF36F8F454B1C
:100AE0000022C3F85022BFF34F8FBFF36F8F5A69B4
:100AF00042F400325A61BFF34F8FBFF36F8F3D4B0B
:100B00005B6913F4803F27D13A4B0022C3F884205D
:100B1000BFF34F8FD3F88040C4F34E3000E0184647
:100B2000C4F3C90243F6E07303EA401343EA827355
:100B30003049C1F86032013AB2F1FF3FF2D1431EB1
:100B40000028ECD1BFF34F8F4B6943F480334B61E6
:100B5000BFF34F8FBFF36F8F00F0EEFCFFF74EFF38
:100B6000FFF776FE00F050F8FFF77CFD00F068F824
:100B700000F048FC00F064FBFFF724FE00F082F96F
:100B800000F03EF90FF040FB4FF47A7309221A4946
:100B90001A4808F0DCF90FF093FC0FF0ABFC694643
:100BA00017480FF0A9FD0FF0D5FB0FF0E5FB0FF094
:100BB000EDFE0FF0CDFC0FF0BFF80FF0B1F910F023
:100BC000E1FA10F001FB0FF0A3FE0FF09BFF10F015
:100BD00051F900F0EDFC044600F0EAFC031B642B25
:100BE000FAD98021074802F087FA00F0E1FC0446B8
:100BF000F2E700BF00ED00E070A501082C0C002416
:100C0000E0080024001C025800B583B00B4BD3F859
:100C1000D42042F00102C3F8D420D3F8D43003F03A
:100C200001030193019B002205217A2000F036FD8B
:100C30007A2000F043FD03B000BD00BF004402581D
:100C400008B50C480C4B03600223436020238360EB
:100C50001023C360162303610023436101228261D4
:100C6000C361036203F082FA00B908BDFFF7C4FE56
:100C7000FBE700BF8009002400500052F0B5BBB074
:100C80000446002135913691379138913991C0222F
:100C900004A812F0A9FC2268524B9A4201D03BB042
:100CA000F0BD4FF000720023CDE9042304A804F046
:100CB000C7F9002840F08D804B4BD3F8D42042F484
:100CC0008042C3F8D420D3F8D42002F480420092AA
:100CD000009AD3F8E02042F01002C3F8E020D3F8E5
:100CE000E02002F010020192019AD3F8E02042F0D5
:100CF0000202C3F8E020D3F8E02002F002020292E0
:100D0000029AD3F8E02042F00802C3F8E020D3F8BA
:100D1000E03003F008030393039B0423359302267A
:100D2000369600253795032738970923399335A937
:100D30002E4802F0BBF80422359236963795389744
:100D40000923399335A92A4802F0B0F84FF46053CB
:100D500035933696379538970923399335A9254821
:100D600002F0A4F8402335933696379538970A2336
:100D7000399335A91E4802F099F81F481F4B0360AC
:100D8000162343608560C023C36005614661082364
:100D90008361C56105624FF0007343628023836203
:100DA000C56205634563856302F0F2FBA0B90022CA
:100DB0001146114802F01CFC88B90F4BE3631C6418
:100DC000002205215C2000F069FC5C2000F076FC2C
:100DD00065E7FFF711FE6FE7FFF70EFEE7E7FFF7A6
:100DE0000BFEEAE70050005200440258001002587F
:100DF00000040258000C025814090024400000525C
:100E000008B50A480A4B0360002343607F228260D2
:100E1000FF22C26003618361C361436105F06AFD23
:100E200000B908BDFFF7E8FDFBE700BFCC090024CF
:100E30000040005810B5B0B00446C02200216846FA
:100E400012F0D2FB22680D4B9A4201D030B010BD97
:100E50004FF480020023CDE900234FF400732D935B
:100E6000684604F0EDF828B9054A136F43F40043CF
:100E70001367EBE7FFF7C0FDF6E700BF004000583F
:100E80000044025808B50948094B03600023436039
:100E900083604FF48042C26003610223436106F025
:100EA00030FD00B908BDFFF7A7FDFBE7F0090024FE
:100EB00000700052F0B5BBB0044600213591369168
:100EC000379138913991C02204A812F08DFB226825
:100ED0002C4B9A4201D03BB0F0BD4FF4803200233E
:100EE000CDE9042304A804F0ABF8002846D1264B32
:100EF000D3F8D42042F48032C3F8D420D3F8D420DD
:100F000002F480320192019AD3F8E02042F0040208
:100F1000C3F8E020D3F8E02002F004020292029A23
:100F2000D3F8E02042F00802C3F8E020D3F8E03024
:100F300003F008030393039B4FF4F8533593022403
:100F4000369400253795032638960C27399735A90E
:100F50000E4801F0ABFF042335933694379538964D
:100F6000399735A90A4801F0A1FF2A460521312009
:100F700000F094FB312000F0A1FBACE7FFF73CFD53
:100F8000B5E700BF00700052004402580008025844
:100F9000000C025882B0074BD3F8F42042F0020252
:100FA000C3F8F420D3F8F43003F002030193019B5B
:100FB00002B07047004402580F2801D90120704741
:100FC00010B58AB0044600220146372000F066FBC7
:100FD000372000F073FB1A4B1C601A4BD3F8E82043
:100FE00042F02002C3F8E820D3F8E83003F02003F1
:100FF0000093009B01A902A803F0F0FE079BBBB978
:1010000003F0C8FE0346104AA2FB03239B0C013BDE
:101010000E480F4A026040F2E732C260436000238C
:101020000361836007F07EF830B101200AB010BD83
:1010300003F0B0FE4300E6E7044806F0D5FEF5E70E
:101040000C0000240044025883DE1B436C0A002479
:1010500000140040FEE7FEE7FEE7FEE7FEE770470C
:10106000704770477047000008B5024801F082FBE6
:1010700008BD00BFB40B002408B5024801F07AFB9C
:1010800008BD00BF3C0B002408B500200FF0F0FCA9
:10109000014807F0D1F908BD2C0C002408B502481E
:1010A00006F020FD08BD00BFF009002408B5024885
:1010B00006F0E6FE08BD00BF6C0A002408B5024831
:1010C00002F04FF908BD00BF501A002408B50248CD
:1010D00002F030FF08BD00BF8009002408B50248B7
:1010E00002F0D2FA08BD00BF1409002408B5034677
:1010F0000D4A0E490E48006840B10D48006803448F
:10110000521A934208D80A4A136008BD0848DFF80B
:1011100024C0C0F800C0F0E712F0F6FB0C23036017
:101120004FF0FF30F1E700BF00000824000400008A
:10113000B80A002428290024314AD2F8883043F420
:101140007003C2F888302F4B1B6803F00F03062B87
:1011500006D82C4A136823F00F0343F007031360EB
:10116000294B1A6842F001021A6000221A611968BC
:10117000264A0A401A60234B1B6813F0080F06D05A
:10118000204A136823F00F0343F0070313601E4B3C
:1011900000229A61DA611A621D4999621D49D96279
:1011A0001D4919635A639963DA6319645A641968AB
:1011B00021F4802119601A66184B1B686FF30F0326
:1011C000B3F1005F03D2164B0122C3F808210E4B86
:1011D000D3F8D43013F4805F10D10B4BD3F8D42064
:1011E00042F48052C3F8D4200E4A43F2D201116077
:1011F000D3F8D42022F48052C3F8D420704700BF23
:1012000000ED00E000200052004402587FEDF6EAB5
:10121000000202020000FF01800201010010005CD8
:101220000080005100400052044BDA6842F0020294
:10123000DA605A689204FCD5704700BF0048025833
:1012400008B51748174B03604FF4E13343600023A0
:101250008360C36003610C2242618361C3610362E6
:101260004362836207F049FF70B900210C4807F020
:10127000C3FF60B900210A4807F0E3FF50B90848EE
:1012800007F09BFF48B908BDFFF7B6FBEDE7FFF796
:10129000B3FBEFE7FFF7B0FBF1E7FFF7ADFBF2E7DA
:1012A0002C0C00240010014030B5B9B004460021D8
:1012B00033913491359136913791C02202A812F0C2
:1012C00093F92268394B9A4201D039B030BD0122DE
:1012D0000023CDE9022302A803F0B2FE00285CD16E
:1012E000334BD3F8F02042F01002C3F8F020D3F8CB
:1012F000F02002F010020092009AD3F8E02042F0B1
:101300000102C3F8E020D3F8E03003F001030193B9
:10131000019B4FF4C063339302233493002535952A
:1013200036950723379333A9224801F0BFFD2248A1
:10133000224B0360292343608560C5604FF48063BE
:10134000036145618561C5610562456200F03AFC53
:1013500030BB194BC4F880309C631948194B0360AB
:101360002A234360402383600023C3604FF48062DC
:10137000026143618361C3610362436200F022FC46
:1013800088B90F4BE3679C6300220521252000F0FC
:1013900085F9252000F092F997E7FFF72DFB9FE7ED
:1013A000FFF72AFBD5E7FFF727FBEAE7001001402C
:1013B0000044025800000258B40B00241000024000
:1013C0003C0B0024280002400FB430B583B006ABBC
:1013D00053F8042B0193094C8021204611F098FF0B
:1013E00005464FF6FF7382B22146054807F0AFFD70
:1013F000284603B0BDE8304004B07047BC0A002462
:101400002C0C002408B50B480B4B03600923037117
:101410000222C2710023837142728372C37203730A
:1014200043738373C37302F007FA00B908BDFFF773
:10143000E3FAFBE7C00C00240000084010B5B8B088
:101440000446002133913491359136913791C02271
:1014500002A812F0C9F822681E4B9A4201D038B097
:1014600010BD4FF480220023CDE902234FF4401336
:10147000249302A803F0E4FD48BB02F09FFA164C47
:10148000D4F8E03043F00103C4F8E030D4F8E030A1
:1014900003F001030093009B4FF4C05333930223E6
:1014A00034930023359336930A23379333A90B489B
:1014B00001F0FCFCD4F8D83043F00063C4F8D83015
:1014C000D4F8D83003F000630193019BC7E7FFF71E
:1014D00093FAD2E700000840004402580000025886
:1014E000DFF838D0FFF7A0FEFFF726FE0C480D49C5
:1014F0000D4A002302E0D458C4500433C4188C426F
:10150000F9D30A4A0A4C002301E013600432A242D4
:10151000FBD312F0FFF9FFF7D5FAFEE7000008242D
:1015200000000024C00800247CC10108C008002479
:1015300024290024FEE7000010B5032000F09CF8E9
:1015400003F0C2F910498B69C3F303230F4AD35C3C
:1015500003F01F03D8408B6903F00F03D35C03F043
:101560001F0320FA03F30A4A13600A4B18600F2086
:10157000FFF722FD18B101231C46204610BD04468A
:10158000FFF708FDF9E700BF00440258F8B2010870
:101590000000002404000024034B1B78034A116858
:1015A0000B441360704700BF08000024A4110024FE
:1015B000014B1868704700BFA411002438B50446D9
:1015C000FFF7F6FF0546B4F1FF3F02D0044B1B784E
:1015D0001C44FFF7EDFF401BA042FAD338BD00BF0B
:1015E00008000024014B1868000C70470010005CD4
:1015F000002807DB00F01F02400901239340024A44
:1016000042F82030704700BF00E100E0002804DB12
:101610000901C9B2044B1954704700F00F000901C9
:10162000C9B2024B1954704700E400E014ED00E029
:1016300000B500F00700A0F1030CBCF1040F07D8BF
:10164000C0F1070E0430062806D84FF0000C03E066
:101650004FF0040E4FF0000C4FF0FF3303FA0EF082
:1016600021EA000101FA0CF103FA0CF322EA030269
:1016700041EA020000BD00000649CB6823F4E063A4
:101680001B041B0C000200F4E0600343024A1A43EF
:10169000CA60704700ED00E00000FA0510B504468E
:1016A000054BD868C0F30220FFF7C2FF0146204671
:1016B000FFF7ACFF10BD00BF00ED00E008B5FFF77D
:1016C00097FF08BDBFF35F8F044B5A6A22F4803244
:1016D0005A620022C3F89420704700BF00ED00E07A
:1016E00040F00100054BC3F894005A6A42F480327E
:1016F0005A62BFF34F8FBFF36F8F704700ED00E06A
:101700004378144AC2F89830D2F8A03023F001038D
:10171000C2F8A0304368C2F89C30017BC37A1B0634
:1017200043EA0173817A43EAC143417B43EA81433F
:10173000817B43EA4143C17B43EA0143417A43EA67
:101740000123017A43EA410301780B43C2F8A03038
:10175000704700BF00ED00E030B58C4615461A46D4
:10176000846D0368DFF8D0E171498B4218BF73457F
:1017700042D018318B423FD018318B423CD01831C7
:101780008B4239D018318B4236D018318B4233D04E
:1017900018318B4230D001F556718B422CD0183164
:1017A0008B4229D018318B4226D018318B4223D05E
:1017B00018318B4220D018318B421DD018318B420A
:1017C0001AD018318B4217D05A498B4214D0143199
:1017D0008B4211D014318B420ED014318B420BD07E
:1017E00014318B4208D014318B4205D014318B4216
:1017F00002D014318B4207D1436E816E5960C36EA3
:1018000013B1036F416F596003684B49DFF820E162
:10181000734518BF8B4268D00EF1180E734564D023
:101820000EF1180E734560D00EF1180E73455CD0A2
:101830000EF1180E734558D00EF1180E734554D0A2
:101840000EF1180E734550D00EF5567E73454CD0F0
:101850000EF1180E734548D00EF1180E734544D0A2
:101860000EF1180E734540D00EF1180E73453CD0A2
:101870000EF1180E734538D00EF1180E734534D0A2
:101880000EF1180E734530D0DFF8B0E029497345EA
:1018900018BF8B4217D0DFF8A8E0734513D00EF1C4
:1018A000140E73450FD00EF1140E73450BD00EF1CC
:1018B000140E734507D00EF1140E734503D00EF1CC
:1018C000140E734527D1C36D03F01F0E012303FAD5
:1018D0000EF3636003685A608368402B22D003686C
:1018E000C3F808C00368DD6015E0C36D03F01F0E88
:1018F0003F2303FA0EF3A3600468236823F48023D4
:10190000236003685A608368402B05D00368C3F8DE
:1019100008C00368DD6030BD03689D600368C3F8DC
:101920000CC0F8E703689D600368C3F80CC0F2E7D9
:101930002800024008540258100002401C5402586B
:101940003054025803682649264A934218BF8B42F6
:101950002ED0183293422BD01832934228D018320E
:10196000934225D01832934222D0183293421FD08E
:10197000183293421CD002F55672934218D0183296
:10198000934215D01832934212D0183293420FD09E
:10199000183293420CD01832934209D01832934235
:1019A00006D01832934203D023F0FF03836511E081
:1019B000D9B210390C4AA2FB01C2C2F30212DFF8FD
:1019C0002CC01CF80220C2655F2905D96FF30903FA
:1019D00004338365806D70476FF309038365F9E70E
:1019E0001000024028000240ABAAAAAA08B30108CE
:1019F00083699BB9836A012B0AD0022B02D00BB1F9
:101A000000207047C36A13F0807F2ED100207047FA
:101A1000C36AB3F1C07F2AD000207047B3F5005FDE
:101A20000AD0836A022B2CD9032B2CD1C36A13F062
:101A3000807F2AD100207047836A022B19D00AD8F0
:101A4000CBB1012B05D1C36A13F0807F15D10020E3
:101A5000704700207047032B05D1C36AB3F1C07FE4
:101A60000DD00020704700207047012070470120F2
:101A70007047012070470120704701207047012006
:101A80007047012070470020704701207047000018
:101A900003682149214A934218BF8B4227D0143250
:101AA000934224D01432934221D0143293421ED058
:101AB000143293421BD01432934218D01432934202
:101AC00015D0DAB2103A1649A1FB021212091549D3
:101AD0001944A8291ED9144B13449B000366134BC9
:101AE000436602F01F020123934083667047DBB216
:101AF000083B0F4AA2FB03230E4A02EB131292008B
:101B000002660D4A4266C3F30413012202FA03F38C
:101B1000836670470832DEE7085402581C540258A6
:101B2000ABAAAAAAF0FBFDBF008200108008024009
:101B3000CDCCCCCC009600168058025801794A1EB4
:101B4000072A32D800B50368DFF870E0DFF870C00C
:101B5000634518BF73451ED00CF1140C63451AD0B1
:101B60000CF1140C634516D00CF1140C634512D023
:101B70000CF1140C63450ED00CF1140C63450AD023
:101B80000CF1140C634506D0084B0B449B00C36654
:101B9000074B036705E0074B0B449B00C366064BEE
:101BA000036701239340436700BD70473F820010E5
:101BB000400902403F960016405902580854025806
:101BC0001C54025870B50446FFF7F2FC002C00F0DC
:101BD000B781054623685349534A934218BF8B4245
:101BE0000CBF0121002150D0183293424DD0183241
:101BF00093424AD01832934247D01832934244D08D
:101C00001832934241D0183293423ED002F55672B8
:101C100093423AD01832934237D01832934234D09C
:101C20001832934231D0183293422ED01832934258
:101C30002BD01832934228D01832934225D03B49FA
:101C40003B4A934218BF8B4200F03281394A93429B
:101C500000F02E811432934200F02A811432934214
:101C600000F026811432934200F022811432934214
:101C700000F01E811432934200F01A814023636504
:101C8000032384F8353001204AE0022284F835200D
:101C9000002284F8342079BB274A93422CD0183292
:101CA000934229D01832934226D01832934223D03F
:101CB0001832934220D0183293421DD002F556724A
:101CC000934219D01832934216D01832934213D04F
:101CD0001832934210D0183293420DD018329342EA
:101CE0000AD01832934207D01832934204D01A68AF
:101CF00022F001021A6003E01A6822F001021A6061
:101D000023681A6812F0010F18D0FFF751FC431B2B
:101D1000052BF5D920236365032384F83530012092
:101D200070BD00BF10000240280002400854025855
:101D30001C54025830540258400002401A6881492D
:101D40001140A268E06802432069024360690243CF
:101D5000A0690243E0690243206A02430A43616AC0
:101D6000042900F09A80784909686FF30F01B1F1F6
:101D7000005F11D36168A1F12905A1F13F0003289B
:101D800088BF052D06D9A1F14700012802D94F3996
:101D9000032901D842F480121A6023681E465D6947
:101DA00025F00705636A1D43042B08D1A36A1D4370
:101DB000E36A23B12046FFF71BFE002872D175614C
:101DC0002046FFF7BFFDE36D03F01F023F23934062
:101DD000836023685D495E4A934218BF8B4242D0BC
:101DE000183293423FD0183293423CD0183293427B
:101DF00039D01832934236D01832934233D0183249
:101E0000934230D002F5567293422CD0183293424E
:101E100029D01832934226D01832934223D0183258
:101E2000934220D0183293421DD0183293421AD0D8
:101E30001832934217D0474A934214D01432934237
:101E400011D0143293420ED0143293420BD014327C
:101E5000934208D01432934205D01432934202D0F8
:101E60001432934213D12046FFF712FEA368802B51
:101E700059D0236E22791A60636EA26E5A6063682D
:101E8000013B072B52D90023E366236763670020D9
:101E90006065012384F8353042E7E16A206B014335
:101EA0000A4360E740236365012084F8350037E783
:101EB000022284F83520002284F8342019686FF358
:101EC0001011A268402A2CD0802A27D00022E06876
:101ED00042EAD002206942EAD002606942EAD002B6
:101EE000A06942EAD002E06942EAD002206A42EAEE
:101EF00010120A431A602268174B1344174AA2FBB8
:101F000003231B099B00E3652046FFF71BFDE26DE1
:101F100002F01F0101228A4042605AE74FF48042DA
:101F2000D5E71022D3E700236360A2E72046FFF73E
:101F300005FEE36E00221A60236F626F5A60A6E707
:101F40000120EDE63F8010FE0010005C1000024012
:101F50002800024008540258F8ABFDA7CDCCCCCCE9
:101F6000002800F0508110B5044690F83400012894
:101F700000F04B81012084F8340094F835000128EA
:101F800007D04FF400636365002384F834300120E8
:101F900010BD022084F83500002060652068DFF85D
:101FA00070E2DFF870C2604518BF70453ED00CF19A
:101FB000180C60453AD00CF1180C604536D00CF185
:101FC000180C604532D00CF1180C60452ED00CF185
:101FD000180C60452AD00CF1180C604526D00CF581
:101FE000567C604522D00CF1180C60451ED00CF1D7
:101FF000180C60451AD00CF1180C604516D00CF185
:10200000180C604512D00CF1180C60450ED00CF184
:10201000180C60450AD00CF1180C604506D0D0F8B9
:1020200000C02CF0010CC0F800C005E0D0F800C0E2
:102030002CF0010CC0F800C02046FFF78DFB236890
:102040007349744A934218BF8B4238D01832934276
:1020500035D01832934232D0183293422FD01832F2
:1020600093422CD01832934229D01832934226D072
:1020700002F55672934222D0183293421FD0183282
:1020800093421CD01832934219D01832934216D082
:102090001832934213D01832934210D01832934220
:1020A0000DD01A6822F00E0242F00A021A60236C68
:1020B00093B12268136843F0040313600CE01A68BC
:1020C00022F01E0242F016021A60236C23B122682D
:1020D000136843F00803136023684D494D4A934247
:1020E00018BF8B4242D0183293423FD018329342ED
:1020F0003CD01832934239D01832934236D018323D
:10210000934233D01832934230D002F55672934244
:102110002CD01832934229D01832934226D018324C
:10212000934223D01832934220D0183293421DD0CC
:10213000183293421AD01832934217D0364A93423B
:1021400014D01432934211D0143293420ED0143270
:1021500093420BD01432934208D01432934205D0EC
:102160001432934202D0143293420ED1236E1A6875
:1021700012F4803F03D01A6842F480721A60E36E52
:102180001BB11A6842F480721A6023682049214A00
:10219000934218BF8B4230D0183293422DD0183260
:1021A00093422AD01832934227D01832934224D037
:1021B0001832934221D0183293421ED002F5567243
:1021C00093421AD01832934217D01832934214D047
:1021D0001832934211D0183293420ED018329342E3
:1021E0000BD01832934208D01832934205D01A68A7
:1021F00042F001021A600020CAE61A6842F00102A9
:102200001A600020C4E6012070470220C0E600BF2B
:1022100010000240280002400854025870B50446DD
:10222000FFF7C6F9002C00F08F81054694F8353091
:10223000022B06D080236365002384F8343001200C
:1022400070BD23688B498C4A934218BF8B422FD0B4
:10225000183293422CD01832934229D0183293422C
:1022600026D01832934223D01832934220D018320D
:1022700093421DD002F55672934219D01832934200
:1022800016D01832934213D01832934210D018321D
:1022900093420DD0183293420AD01832934207D09D
:1022A0001832934204D01A6822F001021A6003E047
:1022B0001A6822F001021A6023686E496E4A93423E
:1022C00018BF8B4230D0183293422DD0183293422F
:1022D0002AD01832934227D01832934224D0183291
:1022E000934221D0183293421ED002F55672934287
:1022F0001AD01832934217D01832934214D01832A1
:10230000934211D0183293420ED0183293420BD020
:102310001832934208D01832934205D01A6822F03E
:102320000E021A60266809E01A6822F01E021A607E
:102330002268536923F080035361266823684D495E
:102340004D4A934218BF8B4242D0183293423FD03D
:10235000183293423CD01832934239D0183293420B
:1023600036D01832934233D01832934230D002F52F
:10237000567293422CD01832934229D0183293428D
:1023800026D01832934223D01832934220D01832EC
:1023900093421DD0183293421AD01832934217D06C
:1023A000364A934214D01432934211D014329342DD
:1023B0000ED0143293420BD01432934208D0143210
:1023C000934205D01432934202D01432934204D186
:1023D000226E136823F480731360336813F0010FC7
:1023E0000ED0FFF7E5F8431B052BF6D920236365D4
:1023F000032384F83530002384F8343001201FE7AC
:1024000023681C491C4A934218BF8B4238D01832AB
:10241000934235D01832934232D0183293422FD0A3
:10242000183293422CD01832934229D0183293425A
:1024300026D002F55672934222D0183293421FD012
:10244000183293421CD01832934219D0183293425A
:1024500016D01832934213D01832934210D018324B
:1024600093420DD0A16DE36D03F01F020123934051
:102470004B600CE010000240280002400854025853
:10248000A16DE36D03F01F023F2393408B6023682F
:102490002E492F4A934218BF8B4242D018329342A2
:1024A0003FD0183293423CD01832934239D0183280
:1024B000934236D01832934233D01832934230D000
:1024C00002F5567293422CD01832934229D018321A
:1024D000934226D01832934223D01832934220D010
:1024E000183293421DD0183293421AD018329342B8
:1024F00017D0184A934214D01432934211D0143298
:1025000093420ED0143293420BD01432934208D02F
:102510001432934205D01432934202D014329342C3
:102520000BD1636EA26E5A60E36E33B11A6822F467
:1025300080721A60236F626F5A60012384F835300D
:10254000002084F834007BE6012079E61000024088
:102550002800024008540258002800F0FE8008B508
:10256000024690F83530022B03D0802343650120CA
:1025700008BD03687B487C498B4218BF83420CBF6F
:102580000120002000F0AE8018318B4200F0AA80BC
:1025900018318B4200F0A68018318B4200F0A280E7
:1025A00018318B4200F09E8018318B4200F09A80E7
:1025B00018318B4200F0968001F556718B4200F085
:1025C000918018318B4200F08D8018318B4200F0E1
:1025D000898018318B4200F0858018318B4200F0E1
:1025E000818018318B427DD018318B427AD01831DE
:1025F0008B4277D0196821F00101196011680B68CE
:1026000023F00E030B601368564857498B4218BFDE
:10261000834242D018318B423FD018318B423CD09C
:1026200018318B4239D018318B4236D018318B4259
:1026300033D018318B4230D001F556718B422CD0FB
:1026400018318B4229D018318B4226D018318B4259
:1026500023D018318B4220D018318B421DD0183135
:102660008B421AD018318B4217D040498B4214D07C
:1026700014318B4211D014318B420ED014318B4265
:102680000BD014318B4208D014318B4205D0143159
:102690008B4202D014318B4217D1116E0B6823F498
:1026A00080730B60906DD36D03F01F0101238B408D
:1026B0004360536E916E5960D36E33B1196821F443
:1026C00080711960136F516F5960012382F83530A2
:1026D000002382F83430136D002B40D01046984709
:1026E000002045E7042182F8351080BB204A934240
:1026F0002DD0183293422AD01832934227D0183264
:10270000934224D01832934221D0183293421ED0E3
:1027100002F5567293421AD01832934217D01832EB
:10272000934214D01832934211D0183293420ED0F3
:10273000183293420BD01832934208D01832934289
:1027400005D01A6822F001021A60002010E71A680A
:1027500022F001021A6000200AE7012070471846A3
:1027600006E700BF1000024028000240085402584B
:1027700040000240F0B583B00446002301937D4B36
:102780001D687D4BA3FB0535AD0A876D3E68D7F804
:1027900000C0036879497A48834218BF8B420CBF56
:1027A0000120002061D0774A93425ED018329342D4
:1027B0005BD01832934258D01832934255D0183219
:1027C000934252D0183293424FD002F55672934240
:1027D0004BD01832934248D01832934245D0183229
:1027E000934242D0183293423FD0183293423CD0A9
:1027F0001832934239D01832934236D06249634A34
:10280000934218BF8B4212D0614A93420FD01432C8
:1028100093420CD01432934209D01432934206D022
:102820001432934203D01432934240F060821A680B
:10283000E16D01F01F010420884010EA0C0F00F048
:10284000A68212F0040F00F0A282786012F4004F0A
:1028500000F0598212F4803F00F04F82A36C002BED
:1028600000F045822046984741E2E26D02F01F01E8
:1028700008228A40324241D070BB424A93422BD058
:102880001832934228D01832934225D018329342FE
:1028900022D0183293421FD0183293421CD002F536
:1028A0005672934218D01832934215D01832934280
:1028B00012D0183293420FD0183293420CD01832F3
:1028C000934209D01832934206D01832934203D073
:1028D0001A68C2F3C00202E01A68C2F380026AB149
:1028E0001A6822F004021A60E36D03F01F02082345
:1028F0009340BB60636D43F001036365E26D02F0DA
:102900001F0226FA02F313F0010F47D023681B4879
:102910001B498B4218BF83423CD018318B4239D0BF
:1029200018318B4236D018318B4233D018318B425C
:1029300030D018318B422DD018318B422AD001F57E
:1029400056718B4226D018318B4223D018318B42DE
:1029500020D018318B421DD018318B421AD018313B
:102960008B4217D018318B4214D018318B4211D0C2
:102970001B6813E004000024B5814E1B10000240C8
:102980002800024040000240085402581C540258DB
:10299000305402585B6913F0800F3BD1E36D03F0B4
:1029A0001F03042202FA03F333423FD02268934804
:1029B00093498A4218BF824234D018318A4231D0BA
:1029C00018318A422ED018318A422BD018318A42CF
:1029D00028D018318A4225D018318A4222D001F5F8
:1029E00056718A421ED018318A421BD018318A4251
:1029F00018D018318A4215D018318A4212D01831B5
:102A00008A420FD018318A420CD018318A4209D03C
:102A100013680BE001239340BB60636D43F0020336
:102A20006365BBE7126812F0020F3DD1E36D03F05E
:102A30001F03102202FA03F333425FD022686F486B
:102A40006F498A4218BF824234D018318A4231D04D
:102A500018318A422ED018318A422BD018318A423E
:102A600028D018318A4225D018318A4222D001F567
:102A700056718A421ED018318A421BD018318A42C0
:102A800018D018318A4215D018318A4212D0183124
:102A90008A420FD018318A420CD018318A4209D0AC
:102AA0001268C2F3800208E0BB60636D43F0040368
:102AB0006365BBE71268C2F3C002FAB1BB6023686A
:102AC0001A6812F4802F0DD01B6813F4002F04D164
:102AD000236C9BB12046984710E0A36C73B120464D
:102AE00098470BE01A6812F4807F03D11A6822F02D
:102AF00008021A60236C0BB120469847E36D03F07F
:102B00001F03202202FA03F3334200F0928022686E
:102B10003A483B498A4218BF82422ED018318A4235
:102B20002BD018318A4228D018318A4225D018314A
:102B30008A4222D018318A421FD018318A421CD0D2
:102B400001F556718A4218D018318A4215D01831D1
:102B50008A4212D018318A420FD018318A420CD0E2
:102B600018318A4209D018318A4206D018318A4277
:102B700003D01268C2F3400202E01268C2F30012EE
:102B8000002A56D0BB6094F83530042B0ED0236851
:102B90001A6812F4802F3AD01B6813F4002F31D03A
:102BA000636C002B45D02046984742E022681368AA
:102BB00023F0160313602268536923F080035361E6
:102BC000236CBBB12268136823F008031360E36D24
:102BD00003F01F023F239340BB60012384F835308C
:102BE000002384F83430236D002B00F080802046D1
:102BF00098477CE0A36C002BE4D1E8E7100002408A
:102C000028000240E36BA3B12046984711E01A6800
:102C100012F4807F09D11A6822F010021A60012391
:102C200084F83530002384F83430E36B0BB1204650
:102C30009847636D002B5AD0636D13F0010F52D08B
:102C4000042384F8353023689549964A934218BF87
:102C50008B422FD0183293422CD01832934229D075
:102C60001832934226D01832934223D0183293421E
:102C700020D0183293421DD002F55672934219D0DB
:102C80001832934216D01832934213D0183293421E
:102C900010D0183293420DD0183293420AD0183215
:102CA000934207D01832934204D01A6822F00102EE
:102CB0001A6003E01A6822F001021A60019B0133D6
:102CC0000193AB4204D823681B6813F0010FF5D1C0
:102CD00023681B6813F0010F0BD0032384F83530F1
:102CE000002384F83430E36C0BB12046984703B0DE
:102CF000F0BD012384F83530F2E7236C002BF6D0C9
:102D000020469847F3E712F0200F3AD12368644930
:102D1000644A934218BF8B422FD0183293422CD072
:102D20001832934229D01832934226D01832934257
:102D300023D01832934220D0183293421DD002F58E
:102D40005672934219D01832934216D018329342D9
:102D500013D01832934210D0183293420DD018324B
:102D600093420AD01832934207D01832934204D0CB
:102D70001A6822F004021A6003E01A6822F00802BE
:102D80001A60236C002BB2D020469847AFE7022090
:102D9000884010EA0C0F60D012F0020F5DD078600E
:102DA00012F4004F0ED012F4803F05D1636C002B5B
:102DB0009DD0204698479AE7E36B002B97D020469A
:102DC000984794E712F0200F40D123683449354AE0
:102DD000934218BF8B422FD0183293422CD0183216
:102DE000934229D01832934226D01832934223D0EE
:102DF0001832934220D0183293421DD002F55672F9
:102E0000934219D01832934216D01832934213D0FD
:102E10001832934210D0183293420DD01832934298
:102E20000AD01832934207D01832934204D01A685D
:102E300022F00A021A6003E01A6822F014021A60F3
:102E4000012384F83530002384F83430E36B002B01
:102E50003FF44DAF2046984749E7082000FA01F1BA
:102E600011EA0C0F3FF443AF12F0080F3FF43FAFED
:102E70001A6822F00E021A60E36D03F01F030122AC
:102E800002FA03F37B60626584F83520002384F83E
:102E90003430E36C002B3FF42AAF2046984726E7F6
:102EA0001000024028000240406D704770B582B0AB
:102EB000002376E085684FEA430E032404FA0EF4FB
:102EC00025EA0405CC6804FA0EF42C4384604468B7
:102ED00024EA0C044D68C5F3001C0CFA03FC4CEA10
:102EE0000404446072E08C68012C75D182E0DD0836
:102EF000083550F8254003F0070C4FEA8C0C4FF0D2
:102F00000F0E0EFA0CFE24EA0E0E0C6904FA0CF4F5
:102F100044EA0E0440F8254073E0092400E0002450
:102F200004FA0EF42C430CF1020C6D4D45F82C40C4
:102F30004FF0B04424686FEA020C24EA02054E68A0
:102F400016F4801F01D042EA04054FF0B04425601A
:102F500064680CEA04054E6816F4001F01D042EACA
:102F600004054FF0B0446560D4F884400CEA0405D1
:102F70004E6816F4003F01D042EA04054FF0B04419
:102F8000C4F88450D4F880400CEA04054E6816F466
:102F9000803F01D042EA04054FF0B042C2F88050B1
:102FA00001330A6832FA03F400F097804FF0010C05
:102FB0000CFA03FC1CEA0202F2D04C6804F0030E87
:102FC0000EF1FF3EBEF1010F7FF674AF4C6804F0C6
:102FD000030CBCF1030F86D0C5685C004FF0030CF6
:102FE0000CFA04FC25EA0C0E8D6805FA04FC4CEA88
:102FF0000E04C4604C6804F0030CBCF1020F3FF4F3
:1030000076AF05685C004FF0030C0CFA04FC25EA6F
:103010000C0E4D6805F0030C0CFA04FC4CEA0E048F
:1030200004604C6814F4403FBAD02E4CD4F8F450ED
:1030300045F00205C4F8F450D4F8F44004F002045A
:103040000194019C4FEA930C0CF10205244C54F8B6
:10305000255003F0030E4FEA8E0E0F2404FA0EF4EF
:1030600025EA0405204CA0423FF459AF04F58064E2
:10307000A04222D004F58064A04220D004F58064F0
:10308000A0421ED004F58064A0421CD004F58064E8
:10309000A0421AD004F58064A04218D004F58064E0
:1030A000A04216D004F58064A04214D004F58064D8
:1030B000A0423FF432AF0A2432E7012430E7022471
:1030C0002EE703242CE704242AE7052428E7062416
:1030D00026E7072424E7082422E702B070BD00BFDA
:1030E0000004005800440258000002580AB18161EF
:1030F0007047090481617047436901EA030221EACC
:10310000030141EA024181617047000030B54C681B
:103110000368DD68C5F30B452C444FEAC21C03EB82
:10312000C213D3F8885005F47045C3F888500B6873
:10313000D0F800E0DEF80C50C5F30B452B4401330A
:103140000EEBC21E43EA0443CEF88830CC68036815
:10315000DD68C5F30A052C4403EBC213D3F88C5089
:1031600005F47045C3F88C508B68D0F800E0DEF8A9
:103170000C50C5F30A052B4401330EEBC21E43EA83
:103180000443CEF88C30036803EBC213D3F89440A9
:1031900024F00704C3F89440036803EBC2130C69DE
:1031A000C3F8944091F8315091F8324091F83030A2
:1031B00043EA052343EA0443046804EBC21E8C6916
:1031C00043EA0463CEF89C30036803EBC213D3F8E0
:1031D000984024F0FF04C3F89840036803EBC2133F
:1031E0004C69C3F89840036803EBC213D3F8A040BE
:1031F0002A4D2540C3F8A0500C6A036803EBC213A4
:10320000CD692C43C3F8A040036803EBC2134A6A9C
:10321000C3F8AC200B696BB1012B39D0022B18BF5E
:10322000042B37D0032B37D0072B01D0012402E029
:10323000022400E0042403686344D3F8B02002F0C1
:10324000E022C3F8B0208B6A04FB03FE4B680A68D7
:103250009B1A04FB03F307330268624443EA0E43FC
:10326000C2F8B03003686344D3F8B4206FF30A02A5
:10327000C3F8B42003686344CA6AC3F8B42003687F
:103280006344D3F8842042F00102C3F8842030BDA7
:103290000324D0E70224CEE70224CCE7F8F8FFFFAE
:1032A000002859D010B5044690F8A130002B4ED01C
:1032B000022384F8A1302268936923F0704393615C
:1032C00021688A696368A0680343E0680343206952
:1032D000034313438B616169A369226843EA014395
:1032E0009360E169236A226843EA0143D360616A1B
:1032F000A36A226843EA01431361E16A236B2268EF
:1033000043EA0143536194F8350094F836301B04C6
:103310002168CA6A02F07F42CA622168CA6A43EA27
:10332000002394F8340003431343CB622268536BA9
:1033300043F0060353632268936943F001039361EA
:103340000020C4F8A400012384F8A13010BD80F847
:10335000A0300CF055FEABE7012070477047704776
:10336000704770B5044603689D6B5E6B15F0040FE3
:1033700002D016F0040F12D115F0020F02D016F091
:10338000020F21D115F0010F02D016F0010F32D13A
:1033900015F0080F02D016F0080F3DD170BD5A6B22
:1033A00022F004025A6303680422DA63D0F8A430DE
:1033B00043F00103C0F8A43080F8A120002380F876
:1033C000A030FFF7CBFFD7E72268536B23F002034F
:1033D000536323680222DA63D4F8A4301343C4F899
:1033E000A430042384F8A130002384F8A0302046C0
:1033F000FFF7B4FFC6E72268536B23F00103536362
:1034000022680123D36384F8A130002384F8A0301C
:103410002046FFF7A4FFBBE72268536B23F00803A5
:10342000536323680822DA63012384F8A130002360
:1034300084F8A0302046FFF793FFAFE7F8B590F887
:10344000A030012B2CD004460F461646012580F8EB
:10345000A050022380F8A1304FF0340C0CFB020C7A
:103460000CF1380C8E46BEE80F00ACE80F00BEE849
:103470000F00ACE80F00BEE80F00ACE80F00DEF86C
:103480000030CCF80030324639462046FFF73EFE89
:1034900023685D6284F8A150002084F8A000F8BD84
:1034A0000220FCE790F8A030012B11D0012280F817
:1034B000A020022380F8A13006498B6943F48033B1
:1034C0008B6180F8A120002380F8A0301846704757
:1034D0000220704700100050C368016902680B4366
:1034E000D360436982691343C2691343026A134379
:1034F000426A1343C26A1343026B1343826A013A5E
:1035000043EA8243816802680B4313614368B3F165
:10351000804F1BD0036800225A61436B93421BDB30
:1035200002689BB21362836B002B20DB01680A6A7E
:1035300042EA03430B624368B3F1804F24D0026830
:10354000DBB29362036800225A6270470268136913
:1035500043F040431361DDE70268536943F480237D
:103560005361436B5B4202689BB21362DBE7026804
:10357000536943F400235361836B5A4201680B6A19
:1035800043EA02430B62D6E7036800229A62D9E756
:1035900038B50446FEF70CF844B30546002384F81A
:1035A0003C30022384F83D302268D36823F00103C5
:1035B000D3602368DB6813F0010F0BD0FDF7F8FF31
:1035C000431B052BF5D94023A366032384F83D3024
:1035D00001200AE02046FFF77FFF0020E06520661B
:1035E0006066A066012384F83D3038BD0120FCE709
:1035F00088B3034690F83C0001282ED0012083F8C0
:103600003C0093F83DC05FFA8CF0BCF1010F04D090
:103610000120002283F83C20704700B5D3F800C099
:10362000DCF810E01EF0804F0AD1CCF8301018689A
:10363000426349B919680A6922F000420A61002010
:10364000002283F83C2000BD19680A6942F000425C
:103650000A610020F4E7012070470220704788B11A
:1036600090F83D20022A03D0802282660120704714
:10367000042280F83D200268D36823F00103D36060
:10368000002070470120704730B583B000230193BC
:10369000664B1D68664BA3FB05350168654B0B4403
:1036A000C3F38413012202FA03F34FF0A442126819
:1036B0001A4200F0A4800446AD0A0B6813F0010F13
:1036C0002FD0CB6813F0020F2BD0CB6823F002036E
:1036D000CB600268936813F0800F40F09280816E97
:1036E00041F00101816613F4007F03D0A16E41F027
:1036F0000401A16613F4807F03D0A16E41F008019C
:10370000A16613F4806F03D0A16E41F01001A16691
:1037100013F4006F03D0A36E43F02003A3660123CC
:10372000536023681A6812F0100F09D0DA6812F09B
:10373000200F05D010225A60A36C0BB12046984789
:1037400023681A6812F0080F09D0DA6812F0100F17
:1037500005D008225A60E36C0BB1204698472368D5
:103760001A6812F0040F09D0DA6812F0080F05D0B9
:1037700004225A60236D0BB12046984723681A68CB
:1037800012F0020F18D0DA6812F0040F14D0DA68C1
:1037900022F03E02DA6094F83D30042B36D02368E4
:1037A00002225A60002384F83C30012384F83D3023
:1037B000636C0BB120469847A36E03B3042384F8CF
:1037C0003D302268D36823F00103D360019B0133AD
:1037D0000193AB4204D82368DB6813F0010FF5D1E5
:1037E000002384F83C302368DB6813F0010F19D004
:1037F000032384F83D30636D0BB12046984703B036
:1038000030BD816E41F0020181666CE7002384F8CF
:103810003C30012384F83D30A36D002BEFD02046CF
:103820009847ECE7012384F83D30E4E704000024E6
:10383000B5814E1BC0FFFFAD30B583B000287CD0F2
:10384000044690F89534B3B1032384F89534206886
:1038500006F02EFA237C8DF80030231D0ECB206855
:1038600006F0D0F960B1022384F8953401231D4697
:10387000284603B030BD80F89434FDF7DFFDE3E760
:103880000146206806F048FB0246B8B90346207995
:10389000984219D903EBC30104EB8101012048755B
:1038A0000B75CB8500200876C861086203EBC30165
:1038B00004EB810148620133DBB2E8E7022384F8BC
:1038C000953401231D46D3E7904217D902EBC2037A
:1038D00004EB8303002183F8551283F8542283F804
:1038E0005812C3F85C12C3F8601202EBC20304EB77
:1038F0008303C3F864120132D2B2E5E7237C8DF86A
:103900000030231D0ECB206806F028FA054650B97A
:103910006074012384F89534237B012B09D020683F
:1039200006F0E8FAA4E7022384F8953401231D4643
:103930009EE7204600F004F8F1E701231D4697E7D3
:10394000034602680121C0F8D814002083F8CC0493
:10395000936943F000639361516D024B0B435365D0
:10396000704700BF03000010134BDB6813F0040F17
:1039700007D1114BDB6803F0070383421AD0012003
:10398000704710B50C4AD36823F007030343D36094
:10399000FDF70EFE0446084B5B6813F4005F07D189
:1039A000FDF706FE001BB0F57A7FF4D9012000E098
:1039B000002010BD0020704700480258024AD3681A
:1039C00043F08073D36070470048025870B54B6A6B
:1039D00033B1B2F1406F03D08B6A013B04682361BD
:1039E000D1F818C0BCF1000F00F08180D1F820E0C0
:1039F000BEF1000F42D003688C68DC61D1F81CC0B6
:103A0000BCF1000F1FD0CB6A0C6B23434C6B2343DC
:103A10004C6A23434C6943EA84430C6923430C6A90
:103A20002343CC6823434CEA03038C6923430C688B
:103A30002343134304686361B2F1406F1DD00368F0
:103A40004A689A6119E0CB6A0C6B23434C6B2343A1
:103A50004C6A23434C6943EA84430C6923430C6A50
:103A600023434CEA03038C69234309680B43016831
:103A700013434B610368C3F818C070BDCC69254679
:103A8000E4B1CB6A0D6B2B434D6B2B434D6A2B433B
:103A90004D6943EA85434EEA0303CD682B431C433B
:103AA0004CEA04030C682343134304686361B2F1D6
:103AB000406FE2D003684A689A61DEE7CB6A0C6B1C
:103AC00023434C6B23434C6A23434C6943EA8443AE
:103AD0004EEA03032C461C434CEA040309680B43DB
:103AE000016813434B61036800229A61C5E7D1F86E
:103AF00020E0BEF1000F3ED003688C68DC61D1F895
:103B00001CC0BCF1000F1DD0CB6A0C6B23434C6B67
:103B100023434C6A23434C6943EA84430C6923439F
:103B20000C6A2343CC6823434CEA03038C69234388
:103B3000134304686361B2F1406F9ED003684A6822
:103B40009A619AE7CB6A0C6B23434C6B23434C6A14
:103B500023434C6943EA84430C6923430C6A23439F
:103B60004CEA030389690B43016813434B61036803
:103B7000C3F818C081E7CC692646DCB1CB6A0D6B6F
:103B80002B434D6B2B434D6A2B434D6943EA8543D1
:103B90004EEA0303CD682B431C434CEA0403134352
:103BA00004686361B2F1406F3FF467AF03684A682D
:103BB0009A6162E74B6A002B3FF45FAFCC6A0D6BF2
:103BC0002C434D6B2C432343496943EA81434EEA1E
:103BD000030E46EA0E034CEA030C01684CEA0202AB
:103BE0004A61036800229A6147E72DE9F0410446E3
:103BF0000E4615469846069F23689B68334214BFBD
:103C00004FF0010C4FF0000CAC4513D0B7F1FF3F63
:103C1000F2D0FDF7CDFC4346C01AB84201D8002FC0
:103C2000EAD1042384F84130636C43F001036364F8
:103C3000012000E00020BDE8F0812DE9F04182B0D4
:103C400004460D469046FDF7B3FC94F840C0BCF125
:103C5000010F3CD00746012384F8403094F84130EE
:103C6000012B08D002231E46002384F84030304642
:103C700002B0BDE8F08100226264022384F8413082
:103C8000CDF80080034620212046FFF7AEFF064610
:103C90000028E9D1024629462046FFF797FE6B6AC5
:103CA0001BB1012384F84130DEE7CDF800803B46AC
:103CB000012202212046FFF798FF06460028D3D1B3
:103CC00023680222DA60012384F84130CCE7022322
:103CD0001E46CCE72DE9F04182B0044688461546E1
:103CE000FDF766FC2668B16994F84030012B57D087
:103CF0000746012384F8403094F84120D3B2012ACA
:103D000007D00223002284F84020184602B0BDE804
:103D1000F081002262644246002A3CD0222384F8CB
:103D2000413033690133A363336901336363C4F8FA
:103D30003080736923F0406343F0806373612368CC
:103D400099610023A26B9AB100953B46012206219E
:103D50002046FFF74AFF034650B9226B96F8201021
:103D60001170216B01312163A16B0139A163E9E776
:103D70001BB1012284F84120C4E700953B46012293
:103D800002212046FFF731FF03460028F1D12268C7
:103D90000221D160EDE7626C42F008026264B1E793
:103DA0000223B2E72DE9F04182B004460F46904667
:103DB0001E46FDF7FDFB94F84020012A4AD0054637
:103DC000012384F8403094F84130012B06D00220C2
:103DD000002384F8403002B0BDE8F0810022626424
:103DE000422384F841300096034620212046FFF705
:103DF000FCFE0028ECD12368D8F800209A622368E2
:103E0000D8F804205A622368D8F80820DA622268B9
:103E1000136823F44003D8F810100B4343F48003D5
:103E20001360D8F80C303946BB624FF00062204670
:103E3000FFF7CCFD00962B46012208212046FFF714
:103E4000D4FE0028C4D123680822DA60012384F854
:103E50004130BDE70220BEE7F0B583B004460F460F
:103E60001646FDF7A5FB94F84030012B3AD001230C
:103E700084F8403094F84130012B07D002231D46CE
:103E8000002384F84030284603B0F0BD002262646D
:103E9000822384F84130A36C0093034620212046FE
:103EA000FFF7A3FE05460028EAD12268136823F035
:103EB000080371680B4313607368082B06D04FF03A
:103EC000406239462046FFF781FDD9E72368326812
:103ED0001A6323681022DA602268136843F480139F
:103EE0001360ECE702231D46CDE7704708B5006C70
:103EF00000238363C36290F84130082B0DD103681F
:103F00000222DA600268136843F400331360026827
:103F1000136843F00203136008BD012380F84130A9
:103F2000FFF7E3FFF8E77047704770477047704747
:103F30007047000010B5044603689A68196812F0CB
:103F4000040F3DD011F4802F3AD090F84120122A6E
:103F500011D090F84120222A1FD02046FFF7E6FF1B
:103F600010BD626A127883F82020626A01326262B0
:103F7000E26A013AE2622268916811F0040FECD023
:103F8000E16A0029EDD1136823F480231360E4E78C
:103F9000136823F480231360DFE72268916811F02F
:103FA000040FDAD0A16B0029F2D0226B93F8201015
:103FB0001170226B01322263A26B013AA263ECE71B
:103FC00012F0020F72D011F4003F6FD00222DA60BB
:103FD0002268136823F4E023136094F84130122B15
:103FE0001AD094F84130222B2CD094F84130022B77
:103FF00051D094F84130082BB2D12268536923F094
:1040000040635361012384F84130636C002B49D134
:104010002046FFF788FFA3E723681A6812F0040F11
:1040200009D01A6822F004021A60E36B1A68D36898
:1040300023F00103D360012384F841302046FFF7C9
:1040400074FF8DE721680B6813F0040F10D00B6824
:1040500023F004030B60E36B1A68D36823F00103B9
:10406000D360012384F8413020460CF06BFA77E7E7
:1040700023689B6813F47C5FF3D0A36B002BF0D014
:10408000236B91F820201A70236B01332363A36BF9
:10409000013BA363ECE7012384F841302046FFF79E
:1040A00043FF5DE72046FFF720FF59E712F0080FB6
:1040B00014D011F4002F11D00822DA6023681A6896
:1040C00012F4800F06D01A6822F410221A6001231D
:1040D00084F841302046FFF72AFF41E712F0010F34
:1040E00031D011F4803F2ED00122DA6022681368AB
:1040F00023F470231360636C43F00203636423684A
:104100001A6812F0040F17D01A6822F004021A601D
:10411000E36B144A9A65E06BFFF7A1FA00283FF4BD
:104120001FAF636C43F004036364012384F84130E0
:104130002046FFF7DAFE13E7012384F841302046DA
:10414000FFF7D3FE0CE712F0100F3FF409AF11F4A4
:10415000801F3FF405AF1022DA602046FFF7E8FE2B
:10416000FEE600BFED3E00088164704730B583B0C5
:104170000446FDF71DFA002C45D0054694F8413061
:10418000002B37D023681A6822F4F852A16801394D
:1041900042EA01221A60A36C00932B4600222021E0
:1041A0002046FFF722FD18BB21680B68174A1A400A
:1041B000E368656843EA0563E5692B43256A2B4399
:1041C0001A430A6021684A68114B134062692569E5
:1041D00042EA0542A5692A4313434B6022681368EB
:1041E00043F00103136000236364012384F841302A
:1041F00003B030BD2046FCF741FD41F28831204636
:10420000FFF7B2FFBEE70120F2E700BF2FFFFF007C
:10421000FEF8E0FF002800F03A8338B50446036852
:1042200013F0010F25D0944A136903F03803926A02
:10423000102B15D0182B0FD06368B3F5803F3FD0FB
:10424000002B53D18C4B1A6822F480321A601A6802
:1042500022F480221A6038E002F00302022AEBD135
:10426000854B1B6813F4003F03D06368002B00F0FC
:104270001083236813F0020F00F0A1807E4A1369B7
:10428000926A13F038035AD0182B55D0E368002BEC
:1042900000F0DE8078490A6822F0190213430B60AF
:1042A000FDF786F90546744B1B6813F0040F40F0C8
:1042B000AD80FDF77DF9401B0228F4D90320EFE221
:1042C0006D4A136843F48033136063682BB3FDF7C2
:1042D0006FF90546684B1B6813F4003FC9D1FDF721
:1042E00067F9401B6428F5D90320D9E2B3F5A02F64
:1042F00009D0614B1A6822F480321A601A6822F4DD
:1043000080221A60E1E75C4B1A6842F480221A604E
:104310001A6842F480321A60D7E7FDF749F905467A
:10432000554B1B6813F4003FA3D0FDF741F9401B28
:104330006428F5D90320B3E212F0030FA6D14E4B47
:104340001B6813F0040F03D0E368002B00F0A38276
:10435000494A136823F01903E1680B431360FDF722
:1043600027F90546444B1B6813F0040F06D1FDF7EF
:104370001FF9401B0228F5D9032091E2FDF732F91D
:1043800041F20303984212D82269402A07D03A49E1
:104390004B6823F47C3343EA02334B600FE0364A28
:1043A000536823F47C3343F40033536007E0324A0C
:1043B000536823F0FE43216943EA01635360236895
:1043C00013F0100F00F088802B4A136903F03803B4
:1043D000926A082B56D0182B50D0E369002B00F0BE
:1043E000B880254A136843F080031360FDF7E0F8B6
:1043F0000546214B1B6813F4807F40F08880FDF751
:10440000D7F8401B0228F4D9032049E2FDF7EAF867
:1044100041F20303984212D82269402A07D0164974
:104420004B6823F47C3343EA02334B60C7E7124AFC
:10443000536823F47C3343F400335360BFE70E4AE0
:10444000536823F0FE43216943EA01635360B6E7F2
:10445000094A136823F001031360FDF7A9F8054624
:10446000054B1B6813F0040FA9D0FDF7A1F8401B02
:104470000228F5D9032013E20044025802F0030297
:10448000012AAAD1994B1B6813F4807F03D0E369FA
:10449000802B40F00282FDF7A5F841F20303984219
:1044A00012D8226A202A07D090494B6823F0F8439B
:1044B00043EA82634B600FE08C4A536823F0F84371
:1044C00043F08043536007E0884AD36823F07C536D
:1044D000216A43EA0163D360236813F0080F60D0B8
:1044E0006369002B49D0814A536F43F0010353673E
:1044F000FDF75EF805467D4B5B6F13F0020F50D160
:10450000FDF756F8401B0228F5D90320C8E1FDF756
:1045100069F841F20303984212D8226A202A07D090
:1045200072494B6823F0F84343EA82634B60D3E758
:104530006E4A536823F0F84343F080435360CBE75F
:104540006A4AD36823F07C53216A43EA0163D3604B
:10455000C2E7664A136823F080031360FDF728F86A
:104560000546624B1B6813F4807FB5D0FDF720F839
:10457000401B0228F5D9032092E15C4A536F23F0D7
:1045800001035367FDF714F80546584B5B6F13F0B2
:10459000020F06D0FDF70CF8401B0228F5D90320C6
:1045A0007EE1236813F0200F29D0A3699BB14F4A05
:1045B000136843F480531360FCF7FAFF05464B4B36
:1045C0001B6813F4005F1AD1FCF7F2FF401B0228AE
:1045D000F5D9032064E1454A136823F4805313603E
:1045E000FCF7E6FF0546414B1B6813F4005F06D05D
:1045F000FCF7DEFF401B0228F5D9032050E12368B9
:1046000013F0040F21D1636A002B00F04881374A70
:10461000126902F03802182A00F0EF80022B7AD0DB
:10462000324A136823F080731360FCF7C1FF04461D
:104630002E4B1B6813F0007F00F0DD80FCF7B8FF05
:10464000001B0228F4D903202AE1294A136843F405
:1046500080731360FCF7ACFF0546254B1B6813F411
:10466000807F06D1FCF7A4FF401B6428F5D9032006
:1046700016E1A368012B0AD00BBB1C4B1A6F22F06A
:1046800001021A671A6F22F004021A6704E0174A3F
:10469000136F43F001031367A3685BB3FCF788FF54
:1046A0000546124B1B6F13F0020FACD1FCF780FFD5
:1046B000401B41F288339842F3D90320F0E0052BE8
:1046C00009D00A4B1A6F22F001021A671A6F22F002
:1046D00004021A67E0E7054B1A6F42F004021A67FA
:1046E0001A6F42F001021A67D6E700BF0044025871
:1046F00000480258FCF75CFF0546714B1B6F13F036
:10470000020F80D0FCF754FF401B41F288339842DF
:10471000F3D90320C4E06A4A136823F0807313605E
:10472000FCF746FF0546664B1B6813F0007F06D07A
:10473000FCF73EFF401B0228F5D90320B0E0604B98
:10474000996A604A0A40A16AE06A41EA00110A4394
:104750009A62226B013AC2F30802616B0139490285
:1047600089B20A43A16B0139090401F4FE010A432D
:10477000E16B0139090601F0FE410A431A63DA6A66
:1047800022F00102DA625A6B6FF3CF02A16C42EAA7
:10479000C1025A63DA6A22F00C02216C0A43DA621F
:1047A000DA6A22F00202616C0A43DA62DA6A42F4DF
:1047B0008032DA62DA6A42F40032DA62DA6A42F4A9
:1047C0008022DA62DA6A42F00102DA621A6842F0A2
:1047D00080721A60FCF7ECFE0446394B1B6813F03C
:1047E000007F06D1FCF7E4FE001B0228F5D9032068
:1047F00056E0002054E0002052E0314A916A106BEC
:10480000012B4ED001F00303A26A93424BD1C1F3B6
:104810000511E36A994248D1C0F30802236B013BBA
:104820009A4244D1C0F34622636B013B9A4240D185
:10483000C0F30642A36B013B9A423CD1C0F3066031
:10484000E36B013B984238D11D4B5B6BC3F3CC0348
:10485000A26C9A4201D1002022E0194AD36A23F0C7
:104860000103D362FCF7A4FE0546FCF7A1FEA842B3
:10487000FBD0134A536B6FF3CF03A16C43EAC10320
:104880005363D36A43F00103D362002008E00120A0
:104890007047012004E0012002E0012000E01846FA
:1048A00038BD0120FCE70120FAE70120F8E70120EC
:1048B000F6E70120F4E70120F2E70120F0E700BF6E
:1048C000004402580CFCFFFF744B1B6903F03803D3
:1048D000102B00F0DD80182B0FD0002B40F0DA8079
:1048E0006E4B1B6813F0200F00F0D6806B4B1B68DB
:1048F000C3F3C1036A48D8407047684B9A6A02F014
:104900000302D3F828C0CCF30510D96A01F00101E5
:104910005B6BC3F3CC0301FB03F307EE903AF8EEB5
:10492000677A1CF47C7F00F0B880012A4AD0022A02
:1049300074D0002A40F08F80584B1B6813F0200F72
:1049400023D056490A68C2F3C102554BD34007EE43
:10495000103AF8EE476A07EE100AB8EE476A86EE9C
:10496000867A0B6BC3F3080306EE903AF8EE666A9C
:104970009FED4C6A67EE867A76EEA77AF7EE006ACC
:1049800077EEA67A27EE277A38E007EE100AF8EEDF
:10499000476A9FED456A86EE267A404B1B6BC3F350
:1049A000080306EE903AF8EE666A9FED3E6A67EEFF
:1049B000867A76EEA77AF7EE006A77EEA67A27EE89
:1049C000277A1BE007EE100AF8EE476A9FED376A78
:1049D00086EE267A314B1B6BC3F3080306EE903A42
:1049E000F8EE666A9FED2F6A67EE867A76EEA77A12
:1049F000F7EE006A77EEA67A27EE277A274B1B6B35
:104A0000C3F34623013307EE903AF8EE677AC7EE18
:104A1000276AFCEEE67A17EE900A704707EE100A56
:104A2000F8EE476A9FED226A86EE267A1B4B1B6BD7
:104A3000C3F3080306EE903AF8EE666A9FED196A32
:104A400067EE867A76EEA77AF7EE006A77EEA67AB8
:104A500027EE277AD2E707EE100AF8EE476A9FEDB5
:104A6000136A86EE267A0D4B1B6BC3F3080306EE22
:104A7000903AF8EE666A9FED0B6A67EE867A76EEFC
:104A8000A77AF7EE006A77EEA67A27EE277AB5E7DF
:104A9000084870470848704701487047004402586A
:104AA0000090D003000000390024744C0024744AA4
:104AB00020BCBE4B40787D0100093D00002800F07D
:104AC000328170B50D4604469B4B1B6803F00F0303
:104AD0008B420BD2984A136823F00F030B431360E9
:104AE000136803F00F038B4240F01F81236813F01B
:104AF000040F0CD02269914B9B6903F070039A421A
:104B000005D98E498B6923F070031A438A612368A3
:104B100013F0080F0CD06269884BDB6903F0700357
:104B20009A4205D98549CB6923F070031A43CA61BB
:104B3000236813F0100F0CD0A269804BDB6903F4DB
:104B4000E0639A4205D97D49CB6923F4E0631A43B7
:104B5000CA61236813F0200F0CD0E269774B1B6AFF
:104B600003F070039A4205D974490B6A23F070036D
:104B70001A430A62236813F0020F0CD0E2686F4BED
:104B80009B6903F00F039A4205D96C498B6923F0A6
:104B90000F031A438A61236813F0010F41D0674A5B
:104BA000936923F47063A1680B4393616368022BDC
:104BB0000AD0032B27D0012B2CD0604A126812F0A8
:104BC000040F06D10120ADE0126812F4003F00F09E
:104BD000AE805A490A6922F0070213430B61FCF7C1
:104BE000E7FC0646554B1B6903F038036268B3EBDC
:104BF000C20F16D0FCF7DCFC801B41F288339842D0
:104C0000F0D903208EE04D4A126812F0007FE0D107
:104C1000012087E0494A126812F4807FD9D101202F
:104C200080E0236813F0020F0CD0E268434B9B69CD
:104C300003F00F039A4205D240498B6923F00F031A
:104C40001A438A613C4B1B6803F00F03AB420AD93D
:104C5000394A136823F00F032B431360136803F0E2
:104C60000F03AB4265D1236813F0040F0CD0226907
:104C7000324B9B6903F070039A4205D22F498B692E
:104C800023F070031A438A61236813F0080F0CD0D5
:104C900062692A4BDB6903F070039A4205D2274907
:104CA000CB6923F070031A43CA61236813F0100F15
:104CB0000CD0A269214BDB6903F4E0639A4205D270
:104CC0001E49CB6923F4E0631A43CA61236813F0D9
:104CD000200F0CD0E269194B1B6A03F070039A4253
:104CE00005D216490B6A23F070031A430A62FFF7D4
:104CF000EBFD12498B69C3F30323114AD35C03F024
:104D00001F03D8408B6903F00F03D35C03F01F032C
:104D100020FA03F30B4A13600B4B18600B4B186817
:104D2000FCF74AF970BD012070470120FAE7012025
:104D3000F8E70120F6E700BF0020005200440258C7
:104D4000F8B2010800000024040000240C00002434
:104D500008B5FFF7B9FD0B4A9369C3F303230A496A
:104D6000CB5C03F01F0320FA03F3926902F00F02F9
:104D7000885C00F01F0023FA00F0044A1060044A27
:104D8000136008BD00440258F8B201080000002476
:104D90000400002408B5FFF7DBFF054BDB69C3F314
:104DA0000213044AD35C03F01F03D84008BD00BFC0
:104DB00000440258F8B2010808B5FFF7C9FF054BD7
:104DC000DB69C3F30223044AD35C03F01F03D8401A
:104DD00008BD00BF00440258F8B201083F23036039
:104DE000114B1A6902F0070242609A6902F470627C
:104DF00082609A6902F00F02C2609A6902F0700242
:104E00000261DA6902F070024261DA6902F4E0627A
:104E100082611B6A03F07003C361044B1B6803F0DB
:104E20000F030B60704700BF00440258002000527F
:104E3000404B9B6A03F00303032B79D070B5054602
:104E40000E463C4A136823F080631360FCF7B0FB06
:104E50000446384B1B6813F0006F06D0FCF7A8FB24
:104E6000031B022BF5D9032070BD324B9A6A22F442
:104E70007C32296842EA01329A626A68013AC2F3D6
:104E80000802A9680139490289B20A43E96801396F
:104E9000090401F4FE010A4329690139090601F0F8
:104EA000FE410A439A63DA6A22F0C00269690A4342
:104EB000DA62DA6A22F02002A9690A43DA62DA6A5F
:104EC00022F01002DA62DA6B6FF3CF02E96942EA8C
:104ED000C102DA63DA6A42F01002DA62C6B9154A30
:104EE000D36A43F40023D362124A136843F0806309
:104EF0001360FCF75DFB04460E4B1B6813F0006F5C
:104F000014D1FCF755FB001B0228F5D90320ABE7B1
:104F1000012E05D0074AD36A43F40013D362E3E7B6
:104F2000044AD36A43F48013D362DDE700209BE791
:104F30000120704700440258404B9B6A03F0030372
:104F4000032B79D070B505460E463C4A136823F012
:104F500080531360FCF72CFB0446384B1B6813F09E
:104F6000005F06D0FCF724FB031B022BF5D90320BE
:104F700070BD324B9A6A22F07C72296842EA015273
:104F80009A626A68013AC2F30802A96801394902C3
:104F900089B20A43E9680139090401F4FE010A43B0
:104FA00029690139090601F0FE410A431A64DA6AE7
:104FB00022F4406269690A43DA62DA6A22F4007212
:104FC000A9690A43DA62DA6A22F48072DA625A6CF8
:104FD0006FF3CF02E96942EAC1025A64DA6A42F425
:104FE0008072DA62C6B9154AD36A43F48003D36289
:104FF000124A136843F080531360FCF7D9FA044651
:105000000E4B1B6813F0005F14D1FCF7D1FA001BA4
:105010000228F5D90320ABE7012E05D0074AD36A51
:1050200043F08073D362E3E7044AD36A43F4000396
:10503000D362DDE700209BE701207047004402585F
:10504000F8B50446036813F0006F30D0836EB3F5F3
:10505000001F26D00ED8ABB1B3F5801F07D10221B7
:105060000830FFF7E5FE054695B12E4621E0012602
:1050700035461EE0B3F5401F01D1002508E00126AA
:10508000354616E09B4AD36A43F40033D3620025C9
:10509000984A136D23F44013A16E0B431365002649
:1050A00007E002212830FFF747FF0546DCE700262E
:1050B0003546236813F4807F1BD0A36D022B30D0BC
:1050C0000CD843B3012B06D1002104F10800FFF7EF
:1050D000AFFE054605E0012635460AE0033B012BFD
:1050E00026D845BB834A136D23F00703A16D0B43FC
:1050F0001365236813F4007F37D0E36D802B49D00C
:105100001ED82BB3402B18D1002104F10800FFF763
:105110008FFE054621E0774AD36A43F40033D36219
:10512000DFE7002104F12800FFF706FF0546D8E776
:1051300001263546DDE72E46DBE70126354614E03D
:10514000C02B0AD0B3F5807F07D0012635460CE08E
:10515000684AD36A43F40033D36215BB654A136DC2
:1051600023F4E073E16D0B431365236813F4806F40
:105170003CD0D4F8A830B3F5800F2FD016D8F3B1B7
:10518000B3F5001F0FD1002104F10800FFF750FE16
:10519000054619E0002104F12800FFF7CDFE054681
:1051A000DBE72E46E1E7012635461FE0B3F5C00FE9
:1051B0000AD0B3F5000F07D00126354616E04D4A58
:1051C000D36A43F40033D3627DB94A4A936D23F422
:1051D0006003D4F8A8100B43936507E0002104F1A5
:1051E0002800FFF7A9FE0546EEE72E46236813F4D4
:1051F000006F2BD0D4F8AC30B3F1007F53D00DD872
:10520000ABB1B3F1807F06D1002104F10800FFF7B4
:105210000FFE054610E00126354617E0B3F1407F4A
:105220000AD0B3F1806F07D0012635460EE0314A2F
:10523000D36A43F40033D362002D3BD12D4A936DE2
:1052400023F0E063D4F8AC100B439365236813F0AC
:10525000007F13D0E36C202B36D030D833B1102B25
:105260002AD1244AD36A43F40033D3629DBB214A36
:10527000D36C23F03003E16C0B43D364236813F445
:10528000805F47D0236EB3F5005F00F08E8027D893
:1052900093B3B3F5805F20D1002104F10800FFF73C
:1052A000C7FD05462DE0002104F12800FFF744FE6C
:1052B0000546C1E72E46C9E701263546DEE7302B15
:1052C000D4D001263546D9E7022104F10800FFF7C2
:1052D000AFFD0546CAE72E46D0E70126354619E060
:1052E000B3F5405F0DD0B3F5804F0AD001263546A7
:1052F00010E000BF00440258484AD36A43F4003328
:10530000D362002D58D1454A136D23F4E043216E3A
:105310000B431365236813F4005F17D0636EB3F576
:10532000003F5AD04DD843B1B3F5803F46D101215B
:1053300004F10800FFF77CFD0546002D54D1374AE3
:10534000136D23F4E023616E0B431365236813F49C
:10535000804F19D0D4F8B030B3F1005F55D048D8A1
:1053600043B1B3F1805F41D1012104F10800FFF79F
:105370005FFD0546002D4FD1284A936D23F0E04391
:10538000D4F8B0100B439365236813F4004F56D044
:10539000236FB3F1805F43D0B3F1005F00F07A81F7
:1053A000002B42D00126354649E0002104F12800B7
:1053B000FFF7C2FD0546A4E72E46ABE701263546BA
:1053C000C4E7B3F5802FB8D0B3F5A02FB5D0B3F5AF
:1053D000403FB2D001263546B8E7012104F128004C
:1053E000FFF7AAFD0546A8E72E46AFE7012635469A
:1053F000CAE7B3F1804FBDD0B3F1A04FBAD0B3F13B
:10540000405FB7D001263546BEE7012104F12800F0
:10541000FFF792FD0546ADE72E46B5E7004402587A
:10542000AA4AD36A43F40033D362002D40F0398195
:10543000A64A136D23F04053216F0B431365236875
:1054400013F0807F18D0A36C022B00F0358100F29E
:105450002D813BB1012B40F026819C4AD36A43F455
:105460000033D362002D40F02E81984AD36C23F094
:105470000303A16C0B43D364236813F4800F40F043
:105480002781236813F0010F19D0E36F102B00F070
:10549000928100F2848143B1082B40F07D8101218B
:1054A00004F10800FFF7C4FC0546002D40F08A8196
:1054B000864A536D23F03803E16F0B43536523682D
:1054C00013F0020F19D0A36F022B00F0878100F2B6
:1054D0007E8143B1012B40F07781012104F1080066
:1054E000FFF7A6FC0546002D40F07F81774A536DFB
:1054F00023F00703A16F0B435365236813F0040FD8
:105500001BD0D4F89430022B00F07B8100F2728122
:1055100043B1012B40F06B81012104F10800FFF73A
:1055200087FC0546002D40F07381684A936D23F097
:105530000703D4F894100B439365236813F0200FEE
:105540001DD0D4F89030B3F1005F00F0758100F207
:1055500064814BB1B3F1805F40F05C81002104F1C4
:105560000800FFF765FC0546002D40F06C81574AA6
:10557000536D23F0E043D4F890100B435365236838
:1055800013F0400F1DD0D4F89C30B3F5006F00F03D
:105590006E8100F25D814BB1B3F5806F40F05581B3
:1055A000002104F10800FFF743FC0546002D40F000
:1055B0006581464A936D23F4E053D4F89C100B4365
:1055C0009365236813F0800F1DD0D4F8A030B3F595
:1055D000804F00F0678100F256814BB1B3F5005F58
:1055E00040F04E81002104F10800FFF721FC054640
:1055F000002D40F05E81354A936D23F46043D4F86A
:10560000A0100B439365236813F0080F0DD0D4F856
:105610008430B3F5805F00F04E812C4A536D23F443
:105620004053D4F884100B435365236813F0100FD4
:105630000DD0D4F89830B3F5807F00F04681234A2E
:10564000936D23F44073D4F898100B43936523684B
:1056500013F4002F00F04E81D4F8A430B3F5803F4E
:1056600000F03D81B3F5003F08D0002B40F03E81B3
:10567000194604F10800FFF7DBFB0546002D40F05A
:105680003881124A936D23F44033D4F8A4100B43AD
:1056900093652FE1012104F10800FFF7C9FB0546DE
:1056A000C3E62E46CBE601263546E5E6032B3FF45E
:1056B000D9AE01263546DFE6022104F10800FFF7E6
:1056C000B7FB0546CEE62E46D6E600BF004402589C
:1056D000AD4A136843F480731360FBF769FF074614
:1056E000A94B1B6813F4807F05D1FBF761FFC01B3A
:1056F0006428F5D90325002D4AD1A44B1B6FD4F89B
:10570000B420534013F4407F0CD0A04B1A6F22F406
:105710004072196F41F480311967196F21F480319B
:1057200019671A67D4F8B430B3F5807F15D08DBBF4
:10573000D4F8B43003F44072B2F5407F1ED0934ADF
:10574000136923F47C53136190490B6FD4F8B42090
:10575000C2F30B0213430B6793E6FBF729FF0746DF
:105760008A4B1B6F13F0020FE1D1FBF721FFC01B27
:1057700041F288339842F3D90325D8E78348026978
:1057800022F47C52824901EA131313430361DBE7DD
:105790002E4676E62E4674E6012635468FE6202B09
:1057A0003FF483AE282B3FF480AE182B3FF47DAE40
:1057B0000126354683E6012104F12800FFF7BCFBF2
:1057C000054672E62E467AE60126354695E6033B07
:1057D000022B7FF688AE012635468EE6012104F1C4
:1057E0002800FFF7A9FB05467DE62E4685E6012643
:1057F0003546A2E6033B022B7FF694AE01263546E2
:105800009BE6012104F12800FFF796FB054689E697
:105810002E4692E601263546B1E6B3F1804F3FF4BD
:10582000A3AEB3F1A04F3FF49FAEB3F1405F3FF49E
:105830009BAE01263546A2E6022104F12800FFF7BF
:105840007BFB054690E62E4699E601263546B8E6EE
:10585000B3F5805F3FF4AAAEB3F5A05F3FF4A6AE08
:10586000B3F5406F3FF4A2AE01263546A9E602210A
:1058700004F12800FFF760FB054697E62E46A0E6F8
:1058800001263546BFE6B3F5004F3FF4B1AEB3F5A0
:10589000204F3FF4ADAEB3F5C04F3FF4A9AE0126A3
:1058A0003546B0E6022104F12800FFF745FB054626
:1058B0009EE62E46A7E6022104F12800FFF73CFBF6
:1058C00000283FF4AAAE0126A7E6022104F1280031
:1058D000FFF732FB00283FF4B2AE0126AFE602210B
:1058E00004F12800FFF728FB0546C7E601263546E8
:1058F00000E02E46236813F4802F18D0D4F88830A7
:10590000B3F5001F1FD0B3F5401F07D0B3F5801FBC
:1059100020D11E4AD36A43F40033D362EDB91B4A47
:10592000536D23F44013D4F888100B435365236858
:1059300013F4803F2FD0236D8BB1B3F5803F1CD083
:105940000126354627E0012104F12800FFF7F4FA8B
:105950000546E3E701263546E9E72E46E7E70B4A29
:10596000D36A43F40033D362A5B9084AD36C23F455
:105970008033216D0B43D3640DE0022104F1080054
:10598000FFF756FA0546EFE7004802580044025870
:10599000CFFFFF002E46236813F0005F11D123686C
:1059A00013F4003F28D0D4F88030B3F5807F14D0B2
:1059B00010D9B3F5007F15D0B3F5407F12D0012682
:1059C0001AE0022104F12800FFF7B6FA0028E6D019
:1059D0000126E4E733B101260EE0544AD36A43F4CA
:1059E0000033D362002D69D1504A536D23F44073C4
:1059F000D4F880100B435365236813F4801F06D03E
:105A00004A4A136D23F00043616F0B43136523680B
:105A100013F0805F07D0454A136923F48043D4F81C
:105A2000B8100B431361236813F4001F06D03F4ADC
:105A3000136D23F08073E16E0B431365236813F03D
:105A4000804F09D0394B1A6922F400421A611A6951
:105A5000D4F8BC100A431A612368002B06DA334AD3
:105A6000D36C23F04053616D0B43D364236813F46C
:105A7000000F07D02D4A536D23F44003D4F88C1047
:105A80000B435365636813F0010F19D1636813F07A
:105A9000020F1ED1636813F0040F23D1636813F063
:105AA000080F28D1636813F0100F2DD1636813F02D
:105AB000200F32D106B101263046F8BD2E469BE7B5
:105AC000002104F10800FFF7B3F90028DED00646F4
:105AD000DCE7012104F10800FFF7AAF90028D9D07A
:105AE0000646D7E7022104F10800FFF7A1F90028D4
:105AF000D4D00646D2E7002104F12800FFF71CFAB3
